S011000068656C6C6F776F726C642E733139A7
S20500000013E7
S20500000100F9
S20500000200F8
S20500000300F7
S20500000413E3
S20500000500F5
S20500000600F4
S20500000700F3
S20500000813DF
S20500000900F1
S20500000A00F0
S20500000B00EF
S20500000C13DB
S20500000D00ED
S20500000E00EC
S20500000F00EB
S20500001013D7
S20500001100E9
S20500001200E8
S20500001300E7
S20500001413D3
S20500001500E5
S20500001600E4
S20500001700E3
S20500001813CF
S20500001900E1
S20500001A00E0
S20500001B00DF
S20500001C13CB
S20500001D00DD
S20500001E00DC
S20500001F00DB
S20500002013C7
S20500002100D9
S20500002200D8
S20500002300D7
S20500002413C3
S20500002500D5
S20500002600D4
S20500002700D3
S20500002813BF
S20500002900D1
S20500002A00D0
S20500002B00CF
S20500002C13BB
S20500002D00CD
S20500002E00CC
S20500002F00CB
S20500003013B7
S20500003100C9
S20500003200C8
S20500003300C7
S20500003413B3
S20500003500C5
S20500003600C4
S20500003700C3
S20500003813AF
S20500003900C1
S20500003A00C0
S20500003B00BF
S20500003C13AB
S20500003D00BD
S20500003E00BC
S20500003F00BB
S20500004013A7
S20500004100B9
S20500004200B8
S20500004300B7
S20500004413A3
S20500004500B5
S20500004600B4
S20500004700B3
S205000048139F
S20500004900B1
S20500004A00B0
S20500004B00AF
S20500004C139B
S20500004D00AD
S20500004E00AC
S20500004F00AB
S2050000501397
S20500005100A9
S20500005200A8
S20500005300A7
S2050000541393
S20500005500A5
S20500005600A4
S20500005700A3
S205000058138F
S20500005900A1
S20500005A00A0
S20500005B009F
S20500005C6F2F
S20500005D009D
S20500005E405C
S20500005F108B
S2050000606F2B
S2050000610099
S2050000628018
S2050000631186
S2050000646F27
S2050000650095
S205000066C0D4
S2050000671281
S2050000686F23
S2050000690091
S20500006A0090
S20500006B147B
S20500006C6F1F
S20500006D008D
S20500006E404C
S20500006F1576
S2050000706F1B
S2050000710089
S2050000720088
S205000073186F
S2050000746F17
S2050000750085
S2050000764044
S205000077166D
S2050000786F13
S2050000790081
S20500007A8000
S20500007B1A65
S20500007C6F0F
S20500007D007D
S20500007EC0BC
S20500007F1863
S2050000806F0B
S2050000810079
S205000082C0B8
S2050000830077
S2050000846F07
S2050000850075
S2050000864034
S2050000871B58
S2050000886F03
S2050000890071
S20500008A80F0
S20500008B1C53
S20500008C73FB
S20500008D105D
S20500008E501C
S20500008F303B
S20500009093D7
S2050000910069
S2050000920068
S2050000930067
S2050000941353
S20500009581E4
S2050000960064
S2050000970063
S20500009893CF
S20500009981E0
S20500009A0060
S20500009B005F
S20500009C134B
S20500009D82DB
S20500009E005C
S20500009F005B
S2050000A093C7
S2050000A182D7
S2050000A20058
S2050000A30057
S2050000A41343
S2050000A583D2
S2050000A60054
S2050000A70053
S2050000A893BF
S2050000A983CE
S2050000AA0050
S2050000AB004F
S2050000AC133B
S2050000AD84C9
S2050000AE004C
S2050000AF004B
S2050000B093B7
S2050000B184C5
S2050000B20048
S2050000B30047
S2050000B41333
S2050000B585C0
S2050000B60044
S2050000B70043
S2050000B893AF
S2050000B985BC
S2050000BA0040
S2050000BB003F
S2050000BC132B
S2050000BD86B7
S2050000BE003C
S2050000BF003B
S2050000C093A7
S2050000C186B3
S2050000C20038
S2050000C30037
S2050000C41323
S2050000C587AE
S2050000C60034
S2050000C70033
S2050000C8939F
S2050000C987AA
S2050000CA0030
S2050000CB002F
S2050000CC131B
S2050000CD88A5
S2050000CE002C
S2050000CF002B
S2050000D09397
S2050000D188A1
S2050000D20028
S2050000D30027
S2050000D41313
S2050000D5899C
S2050000D60024
S2050000D70023
S2050000D8938F
S2050000D98998
S2050000DA0020
S2050000DB001F
S2050000DC130B
S2050000DD8A93
S2050000DE001C
S2050000DF001B
S2050000E09387
S2050000E18A8F
S2050000E20018
S2050000E30017
S2050000E41303
S2050000E58B8A
S2050000E60014
S2050000E70013
S2050000E8937F
S2050000E98B86
S2050000EA0010
S2050000EB000F
S2050000EC13FB
S2050000ED8C81
S2050000EE000C
S2050000EF000B
S2050000F09377
S2050000F18C7D
S2050000F20008
S2050000F30007
S2050000F413F3
S2050000F58D78
S2050000F60004
S2050000F70003
S2050000F8936F
S2050000F98D74
S2050000FA0000
S2050000FB00FF
S2050000FC13EB
S2050000FD8E6F
S2050000FE00FC
S2050000FF00FB
S2050001009366
S2050001018E6A
S20500010200F7
S20500010300F6
S20500010413E2
S2050001058F65
S20500010600F3
S20500010700F2
S205000108935E
S2050001098F61
S20500010A00EF
S20500010B00EE
S20500010C17D6
S20500010D816B
S20500010E10DB
S20500010F00EA
S20500011013D6
S20500011101E7
S20500011241A6
S205000113EFF7
S20500011417CE
S2050001150DD7
S20500011610D3
S20500011700E2
S20500011813CE
S2050001190DD3
S20500011A0DD2
S20500011BF5E9
S20500011C9746
S20500011D0DCF
S20500011E10CB
S20500011F00DA
S2050001209346
S2050001218D4B
S2050001228D4A
S205000123F4E2
S2050001246372
S205000125587C
S205000126BD16
S20500012701D1
S20500012823AE
S20500012920B0
S20500012A0DC2
S20500012B00CE
S20500012C13BA
S20500012D0DBF
S20500012E4D7E
S20500012F00CA
S205000130E3E6
S205000131DCEC
S205000132AD1A
S205000133FFC7
S205000134EFD6
S20500013500C4
S20500013600C3
S205000137239F
S20500013813AE
S20500013905BB
S20500013A00BF
S20500013B00BE
S20500013C932A
S20500013D05B7
S20500013E10AB
S20500013F00BA
S205000140EFCA
S20500014100B8
S205000142D0E7
S2050001434D69
S20500014413A2
S20500014505AF
S20500014600B3
S20500014700B2
S205000148931E
S20500014905AB
S20500014A00AF
S20500014B00AE
S20500014CEFBE
S20500014D00AC
S20500014E406B
S20500014F2C7E
S2050001501396
S20500015104A4
S20500015205A2
S20500015300A6
S205000154EFB6
S20500015500A4
S2050001561093
S205000157534F
S205000158138E
S205000159059B
S20500015A049B
S20500015B009E
S20500015CEFAE
S20500015D009C
S20500015E900B
S20500015F5941
S2050001601386
S2050001610197
S2050001620196
S205000163FA9C
S2050001642372
S2050001652E66
S2050001661182
S205000167048E
S205000168EFA2
S2050001690090
S20500016A008F
S20500016B107E
S20500016C97F6
S20500016D008C
S20500016E008B
S20500016F008A
S20500017093F6
S2050001718008
S2050001724047
S205000173176F
S2050001746F16
S2050001750084
S2050001765033
S205000177483A
S205000178136E
S205000179017F
S20500017A017E
S20500017BFA84
S20500017C235A
S20500017D2E4E
S20500017E116A
S20500017F0476
S205000180EF8A
S2050001810078
S20500018280F7
S2050001830E68
S20500018497DE
S2050001850074
S2050001860073
S2050001870072
S20500018893DE
S20500018980F0
S20500018AC0AF
S20500018B1559
S20500018C6FFE
S20500018D006C
S20500018E105B
S20500018F4723
S2050001901356
S2050001910167
S2050001920166
S205000193FA6C
S2050001942342
S2050001952E36
S2050001961152
S205000197045E
S205000198EF72
S2050001990060
S20500019A005F
S20500019B0D51
S20500019C97C6
S20500019D005C
S20500019E005B
S20500019F005A
S2050001A093C6
S2050001A180D8
S2050001A24017
S2050001A31442
S2050001A46FE6
S2050001A50054
S2050001A6D083
S2050001A7450D
S2050001A8133E
S2050001A9014F
S2050001AA014E
S2050001ABFA54
S2050001AC232A
S2050001AD2E1E
S2050001AE113A
S2050001AF0446
S2050001B0EF5A
S2050001B10048
S2050001B280C7
S2050001B30B3B
S2050001B497AE
S2050001B50044
S2050001B60043
S2050001B70042
S2050001B893AE
S2050001B980C0
S2050001BAC07F
S2050001BB122C
S2050001BC6FCE
S2050001BD003C
S2050001BE90AB
S2050001BF44F6
S2050001C01326
S2050001C10137
S2050001C20136
S2050001C3FA3C
S2050001C42312
S2050001C52E06
S2050001C61122
S2050001C7042E
S2050001C8EF42
S2050001C90030
S2050001CA002F
S2050001CB0A24
S2050001CC9796
S2050001CD002C
S2050001CE002B
S2050001CF002A
S2050001D09396
S2050001D180A8
S2050001D240E7
S2050001D31115
S2050001D46FB6
S2050001D50024
S2050001D650D3
S2050001D743DF
S2050001D8130E
S2050001D9011F
S2050001DA011E
S2050001DBFA24
S2050001DC23FA
S2050001DD2EEE
S2050001DE110A
S2050001DF0416
S2050001E0EF2A
S2050001E10018
S2050001E28097
S2050001E3080E
S2050001E4977E
S2050001E50014
S2050001E60013
S2050001E70012
S2050001E8937E
S2050001E98090
S2050001EAC04F
S2050001EB0FFF
S2050001EC6F9E
S2050001ED000C
S2050001EE50BB
S2050001EF42C8
S2050001F013F6
S2050001F10107
S2050001F20106
S2050001F3FA0C
S2050001F423E2
S2050001F52ED6
S2050001F611F2
S2050001F704FE
S2050001F8EF12
S2050001F90000
S2050001FA00FF
S2050001FB07F7
S2050001FC9766
S2050001FD00FC
S2050001FE00FB
S2050001FF00FA
S2050002009365
S2050002018077
S20500020240B6
S2050002030EE7
S2050002046F85
S20500020500F3
S2050002069062
S20500020740B1
S20500020813DD
S20500020901EE
S20500020A01ED
S20500020BFAF3
S20500020C23C9
S20500020D2EBD
S20500020E11D9
S20500020F04E5
S205000210EFF9
S20500021100E7
S2050002128066
S20500021305E0
S205000214974D
S20500021500E3
S20500021600E2
S20500021700E1
S205000218934D
S205000219805F
S20500021AC01E
S20500021B0CD1
S20500021C6F6D
S20500021D00DB
S20500021ED00A
S20500021F3F9A
S20500022013C5
S20500022101D6
S20500022201D5
S205000223FADB
S20500022423B1
S2050002252EA5
S20500022611C1
S20500022704CD
S205000228EFE1
S20500022900CF
S20500022A00CE
S20500022B04C9
S20500022C9735
S20500022D00CB
S20500022E00CA
S20500022F00C9
S2050002309335
S2050002318047
S2050002324086
S2050002330BBA
S2050002346F55
S20500023500C3
S20500023610B2
S2050002373E83
S20500023813AD
S20500023901BE
S20500023A01BD
S20500023BFAC3
S20500023C2399
S20500023D2E8D
S20500023E11A9
S20500023F04B5
S205000240EFC9
S20500024100B7
S2050002428036
S20500024302B3
S205000244971D
S20500024500B3
S20500024600B2
S20500024700B1
S205000248931D
S205000249802F
S20500024AC0EE
S20500024B09A4
S20500024C6F3D
S20500024D00AB
S20500024E802A
S20500024F1E8B
S2050002501395
S20500025101A6
S20500025201A5
S205000253FAAB
S2050002542381
S2050002552E75
S2050002561191
S205000257049D
S205000258EFB1
S205000259009F
S20500025A009E
S20500025B019C
S20500025C9705
S20500025D009B
S20500025E009A
S20500025F0099
S2050002609305
S2050002618017
S2050002624056
S205000263088D
S2050002646F25
S2050002650093
S2050002661082
S2050002672968
S205000268236D
S205000269206F
S20500026A315D
S20500026B008D
S20500026C2369
S20500026D2269
S20500026E4149
S20500026F0089
S2050002702365
S2050002712463
S2050002725135
S2050002730085
S2050002742361
S205000275265D
S2050002766121
S2050002770081
S205000278235D
S2050002792857
S20500027A710D
S20500027B007D
S20500027C2359
S20500027D2A51
S20500027EA1D9
S20500027F0079
S2050002802355
S2050002812C4B
S205000282B1C5
S2050002830075
S2050002842351
S2050002852E45
S205000286C1B1
S2050002870071
S205000288234D
S205000289204F
S20500028AD19D
S20500028B026B
S20500028C2349
S20500028D2249
S20500028EE189
S20500028F0267
S2050002902345
S2050002912443
S205000292F175
S2050002930263
S2050002942341
S205000295263D
S2050002960161
S205000297035E
S205000298233D
S2050002992837
S20500029A114D
S20500029B035A
S20500029C2339
S20500029D2A31
S20500029EC199
S20500029F0356
S2050002A02335
S2050002A12C2B
S2050002A2D185
S2050002A30352
S2050002A42331
S2050002A52E25
S2050002A6E171
S2050002A7034E
S2050002A8232D
S2050002A9202F
S2050002AAF15D
S2050002AB0548
S2050002AC73D9
S2050002AD2E1D
S2050002AE004A
S2050002AF7BCE
S2050002B0F355
S2050002B12E19
S2050002B21036
S2050002B37BCA
S2050002B473D1
S2050002B52F14
S2050002B62022
S2050002B77BC6
S2050002B8231D
S2050002B9221D
S2050002BAC17D
S2050002BB0538
S2050002BC2319
S2050002BD2417
S2050002BED169
S2050002BF0534
S2050002C02315
S2050002C12611
S2050002C2E155
S2050002C30530
S2050002C473C1
S2050002C52E05
S2050002C640F2
S2050002C77BB6
S2050002C8F33D
S2050002C92E01
S2050002CA50DE
S2050002CB7BB2
S2050002CC73B9
S2050002CD2FFC
S2050002CE60CA
S2050002CF7BAE
S2050002D02305
S2050002D128FF
S2050002D2C165
S2050002D30520
S2050002D42301
S2050002D52AF9
S2050002D6D151
S2050002D7051C
S2050002D823FD
S2050002D92CF3
S2050002DAE13D
S2050002DB0518
S2050002DC67B5
S2050002DD809B
S2050002DE001A
S2050002DF0019
S2050002E00315
S2050002E12EE9
S2050002E20115
S2050002E30510
S2050002E48391
S2050002E52EE5
S2050002E641D1
S2050002E7050C
S2050002E8030D
S2050002E92FE0
S2050002EA818D
S2050002EB0508
S2050002EC7399
S2050002ED10FB
S2050002EE4EBC
S2050002EF7B8E
S2050002F07395
S2050002F19077
S2050002F25EA8
S2050002F37B8A
S2050002F47391
S2050002F510F3
S2050002F66F93
S2050002F77B86
S2050002F803FD
S2050002F92ED1
S2050002FA41BD
S2050002FB04F9
S2050002FC8379
S2050002FD2ECD
S2050002FE8179
S2050002FF04F5
S20500030003F4
S2050003012FC7
S205000302C134
S20500030304F0
S2050003047380
S20500030510E2
S2050003060EE3
S2050003077B75
S205000308737C
S205000309905E
S20500030A1ECF
S20500030B7B71
S20500030C7378
S20500030D10DA
S20500030E2FBA
S20500030F7B6D
S2050003108364
S20500031121C5
S20500031201E4
S20500031300E4
S20500031403E0
S20500031522C0
S20500031641A0
S20500031700E0
S205000318835C
S20500031922BC
S20500031A815C
S20500031B00DC
S20500031C03D8
S20500031D23B7
S20500031EC118
S20500031F00D8
S2050003208354
S20500032123B3
S20500032201D4
S20500032301D3
S20500032403D0
S20500032525AD
S2050003264190
S20500032701CF
S205000328834C
S20500032925A9
S20500032A814C
S20500032B01CB
S20500032C03C8
S20500032D26A4
S20500032EC108
S20500032F01C7
S2050003308344
S20500033126A0
S20500033201C4
S20500033302C2
S20500033403C0
S205000335279B
S2050003364180
S20500033702BE
S205000338833C
S2050003392797
S20500033A813C
S20500033B02BA
S20500033C03B8
S20500033D2892
S20500033EC1F8
S20500033F02B6
S2050003408334
S205000341288E
S20500034201B4
S20500034303B1
S20500034403B0
S2050003452E84
S2050003464170
S20500034703AD
S205000348832C
S2050003492E80
S20500034A812C
S20500034B03A9
S20500034C03A8
S20500034D2F7B
S20500034EC1E8
S20500034F03A5
S2050003508324
S2050003512F77
S20500035201A4
S20500035304A0
S2050003548320
S2050003552082
S205000356C1E0
S205000357059B
S205000358138C
S205000359019D
S20500035A019C
S20500035B0696
S20500035C7328
S20500035D009A
S20500035E2079
S20500035F3068
S2050003606730
S2050003618016
S2050003620095
S2050003630094
S2050003641380
S2050003650191
S2050003660190
S205000367FF91
S205000368236C
S205000369246A
S20500036A810C
S20500036B008C
S20500036C2368
S20500036D206A
S20500036E2168
S20500036F0187
S2050003703750
S2050003710482
S2050003721075
S2050003730084
S205000374374C
S2050003750979
S2050003761071
S2050003770080
S20500037893EC
S2050003790777
S20500037A0479
S20500037B007C
S20500037C1368
S20500037D0971
S20500037E0970
S20500037F0078
S2050003803344
S205000381096D
S205000382F97C
S2050003834034
S2050003842350
S205000385264C
S2050003861160
S2050003870070
S205000388234C
S205000389224C
S20500038A91DC
S20500038B006C
S20500038C1358
S20500038D5911
S20500038E2940
S20500038F4028
S2050003906304
S2050003910066
S205000392095C
S2050003930262
S2050003941350
S205000395045E
S205000396045D
S2050003970060
S20500039893CC
S205000399045A
S20500039A005D
S20500039B005C
S20500039C83D8
S20500039D2733
S20500039E0455
S20500039F0058
S2050003A093C4
S2050003A184D2
S2050003A21441
S2050003A30054
S2050003A41340
S2050003A5044E
S2050003A6440D
S2050003A70050
S2050003A8E768
S2050003A980CE
S2050003AA0746
S2050003AB004C
S2050003ACE368
S2050003AD1832
S2050003AE99B0
S2050003AFFE4A
S2050003B03710
S2050003B10442
S2050003B21035
S2050003B30044
S2050003B4370C
S2050003B50939
S2050003B61031
S2050003B70040
S2050003B893AC
S2050003B90737
S2050003BA0439
S2050003BB003C
S2050003BC1328
S2050003BD0931
S2050003BE0930
S2050003BF0038
S2050003C03304
S2050003C1092D
S2050003C2F93C
S2050003C340F4
S2050003C41320
S2050003C559D9
S2050003C62908
S2050003C740F0
S2050003C863CC
S2050003C9002E
S2050003CA0924
S2050003CB022A
S2050003CC1318
S2050003CD0426
S2050003CE0425
S2050003CF0028
S2050003D09394
S2050003D10422
S2050003D20025
S2050003D30024
S2050003D483A0
S2050003D527FB
S2050003D6041D
S2050003D70020
S2050003D8938C
S2050003D9849A
S2050003DA1409
S2050003DB001C
S2050003DC1308
S2050003DD0416
S2050003DE44D5
S2050003DF0018
S2050003E0E730
S2050003E18096
S2050003E2070E
S2050003E30014
S2050003E4E330
S2050003E518FA
S2050003E69978
S2050003E7FE12
S2050003E8838C
S2050003E920EE
S2050003EAC14C
S2050003EB000C
S2050003EC0308
S2050003ED24E6
S2050003EE8188
S2050003EF0008
S2050003F08384
S2050003F124E2
S2050003F241C4
S2050003F30004
S2050003F40300
S2050003F529D9
S2050003F60100
S2050003F70000
S2050003F813EC
S2050003F901FD
S2050003FA01FC
S2050003FB01FB
S2050003FC6794
S2050003FD807A
S2050003FE00F9
S2050003FF00F8
S20500040000F6
S20500040100F5
S20500040200F4
S20500040300F3
S20500040400F2
S20500040500F1
S20500040600F0
S20500040700EF
S20500040800EE
S20500040900ED
S20500040A00EC
S20500040B00EB
S20500040C00EA
S20500040D00E9
S20500040E00E8
S20500040F00E7
S20500041037AF
S20500041105E0
S20500041210D4
S20500041300E3
S20500041413CF
S20500041501E0
S20500041601DF
S205000417FFE0
S20500041813CB
S20500041905D8
S20500041A05D7
S20500041B00DB
S20500041C23B7
S20500041D26B3
S20500041E11C7
S20500041F00D7
S205000420EFE7
S20500042100D5
S20500042210C4
S20500042308CB
S205000424834F
S20500042520B1
S205000426C10F
S20500042700CF
S20500042813BB
S20500042905C8
S20500042A00CC
S20500042B00CB
S20500042C13B7
S20500042D01C8
S20500042E01C7
S20500042F01C6
S205000430675F
S2050004318045
S20500043200C4
S20500043300C3
S205000434F3CF
S205000435259C
S20500043610B0
S205000437348B
S20500043803BB
S205000439A617
S20500043A05B7
S20500043B00BB
S20500043C3783
S20500043D05B4
S20500043E10A8
S20500043F00B7
S20500044013A3
S20500044101B4
S20500044201B3
S205000443FFB4
S205000444139F
S20500044505AC
S205000446456B
S20500044701AE
S205000448238B
S2050004492687
S20500044A119B
S20500044B00AB
S20500044CEFBB
S20500044D00A9
S20500044EC0E8
S20500044F3D6A
S2050004501393
S20500045105A0
S2050004521094
S20500045300A3
S205000454EFB3
S20500045500A1
S2050004561090
S2050004572A75
S205000458138B
S205000459019C
S20500045A019B
S20500045BFBA0
S20500045C2377
S20500045D2277
S20500045E9107
S20500045F0493
S2050004602373
S205000461266F
S2050004621183
S205000463048F
S205000464236F
S205000465246D
S205000466810F
S205000467048B
S205000468236B
S205000469206D
S20500046A216B
S20500046B0586
S20500046C2367
S20500046D2E5B
S20500046E3157
S20500046F0384
S2050004702363
S2050004712C59
S2050004724143
S2050004730380
S205000474235F
S2050004752A57
S205000476512F
S205000477037C
S205000478235B
S2050004792855
S20500047A611B
S20500047B0378
S20500047C93E7
S20500047D84F5
S20500047E0672
S20500047F0077
S2050004806313
S2050004810C69
S205000482056F
S205000483244F
S205000484135F
S2050004850869
S205000486056B
S205000487006F
S205000488135B
S2050004890964
S20500048A0666
S20500048B006B
S20500048C6307
S20500048D0663
S20500048E0662
S20500048F0067
S20500049093D3
S205000491065F
S205000492A0C4
S2050004930063
S20500049463FF
S2050004958AD7
S205000496D58B
S2050004972837
S205000498A3BB
S2050004990756
S20500049A015B
S20500049B0259
S20500049C93C7
S20500049D0653
S20500049E0058
S20500049F0156
S2050004A01343
S2050004A1094C
S2050004A20054
S2050004A30053
S2050004A463EF
S2050004A586CB
S2050004A6D57B
S2050004A7123D
S2050004A83717
S2050004A90548
S2050004AA103C
S2050004AB004B
S2050004AC3713
S2050004ADA6A3
S2050004AE99AF
S2050004AF192E
S2050004B093B3
S2050004B1093C
S2050004B2F153
S2050004B30241
S2050004B4132F
S2050004B5053C
S2050004B645FB
S2050004B7053A
S2050004B8132B
S2050004B90637
S2050004BA96A6
S2050004BB99A2
S2050004BCB387
S2050004BD0534
S2050004BEC870
S2050004BF0235
S2050004C093A3
S2050004C156DF
S2050004C2181C
S2050004C30033
S2050004C4939F
S2050004C557DA
S2050004C62808
S2050004C7002F
S2050004C8B37B
S2050004C987A6
S2050004CAD755
S2050004CB002B
S2050004CC9397
S2050004CDD851
S2050004CE47E1
S2050004CF0027
S2050004D0B373
S2050004D1879E
S2050004D2170D
S2050004D30122
S2050004D4938F
S2050004D5D849
S2050004D68799
S2050004D7001F
S2050004D8130B
S2050004D953CA
S2050004DA38E4
S2050004DB001B
S2050004DCB367
S2050004DD8792
S2050004DE1701
S2050004DF0116
S2050004E09383
S2050004E1D83D
S2050004E2070D
S2050004E30112
S2050004E4B35F
S2050004E5858C
S2050004E6D53B
S2050004E7000F
S2050004E8B35B
S2050004E98588
S2050004EA65A7
S2050004EB000B
S2050004EC9377
S2050004EDD534
S2050004EEC543
S2050004EF0106
S2050004F0B353
S2050004F1877E
S2050004F217ED
S2050004F30102
S2050004F4936F
S2050004F5D72A
S2050004F637C9
S2050004F700FF
S2050004F8B34B
S2050004F905F8
S2050004FAB547
S2050004FB00FB
S2050004FC03F7
S2050004FDC435
S2050004FE05F3
S2050004FF00F7
S2050005009362
S205000501965E
S20500050227CC
S20500050300F2
S205000504B33E
S205000505866A
S205000506F6F9
S20500050700EE
S205000508935A
S2050005099656
S20500050A16D5
S20500050B00EA
S20500050C13D6
S20500050D08E0
S20500050E687F
S20500050F00E6
S20500051033B2
S20500051108DC
S205000512D80B
S20500051340A2
S20500051413CE
S20500051504DC
S20500051604DB
S20500051703DB
S20500051813CA
S2050005197468
S20500051AF4E7
S20500051B0FCB
S20500051C13C6
S20500051D5880
S20500051E488F
S20500051F00D6
S205000520A332
S2050005218F45
S205000522894A
S205000523FED4
S205000524339E
S20500052508C8
S205000526F8D7
S20500052700CE
S205000528933A
S2050005298646
S20500052A09C2
S20500052B00CA
S20500052C9336
S20500052D893F
S20500052EF9CE
S20500052FFFC7
S205000530E3E2
S20500053116AE
S20500053208BB
S205000533F8CA
S205000534635E
S20500053504BC
S20500053609B6
S20500053702BC
S205000538635A
S2050005398636
S20500053A04B7
S20500053B1C9E
S20500053C13A6
S20500053D7642
S20500053E2790
S20500053F00B6
S2050005409322
S20500054105AF
S20500054206AD
S20500054300B2
S205000544634E
S2050005450AA6
S20500054606A9
S205000547208E
S205000548139A
S20500054905A7
S20500054AD0DB
S20500054B02A8
S20500054C2386
S20500054D2682
S20500054EE1C6
S20500054F00A6
S205000550EFB6
S20500055100A4
S205000552D0D3
S2050005531191
S205000554039E
S2050005552779
S205000556C1DE
S205000557009E
S205000558930A
S2050005598418
S20500055AF4A7
S20500055BFF9B
S20500055C6336
S20500055D5E3A
S20500055E9007
S20500055F1C7A
S2050005609302
S2050005618A0A
S205000562048F
S2050005630092
S205000564137E
S205000565761A
S2050005662768
S205000567008E
S205000568632A
S2050005691478
S20500056A0487
S20500056B2664
S20500056C1376
S20500056D3B4D
S20500056E1671
S20500056F0086
S2050005703352
S2050005710B79
S2050005726023
S2050005734141
S205000574136E
S2050005757B05
S2050005760B74
S205000577FF7F
S205000578136A
S2050005797705
S20500057A1764
S20500057B007A
S20500057C1366
S20500057D0B6D
S20500057E0B6C
S20500057F0373
S2050005806312
S205000581185C
S205000582076C
S2050005831E54
S20500058493DE
S20500058584EC
S2050005860A65
S205000587006E
S205000588630A
S2050005895A12
S20500058A501B
S20500058B2941
S20500058C93D6
S20500058D84E4
S20500058EF473
S20500058FFF67
S2050005901352
S205000591055F
S2050005920B58
S2050005930062
S205000594EF72
S2050005950060
S20500059690CF
S2050005970D51
S205000598E37A
S2050005999AC2
S20500059A0457
S20500059BFE5C
S20500059C63F6
S20500059D1840
S20500059E0453
S20500059F0C4A
S2050005A0B3A2
S2050005A184D0
S2050005A22A29
S2050005A30151
S2050005A483CE
S2050005A52030
S2050005A6C18E
S2050005A7044A
S2050005A8034A
S2050005A92428
S2050005AA81CA
S2050005AB0446
S2050005AC0346
S2050005AD291F
S2050005AE0146
S2050005AF0442
S2050005B083C2
S2050005B1291B
S2050005B2C182
S2050005B3033F
S2050005B4033E
S2050005B52A16
S2050005B681BE
S2050005B7033B
S2050005B883BA
S2050005B92A12
S2050005BA41FA
S2050005BB0337
S2050005BC0336
S2050005BD2B0D
S2050005BE0136
S2050005BF0333
S2050005C01322
S2050005C185AF
S2050005C2042F
S2050005C30032
S2050005C483AE
S2050005C5240C
S2050005C641EE
S2050005C7042A
S2050005C8131A
S2050005C9012B
S2050005CA012A
S2050005CB0525
S2050005CC67C2
S2050005CD80A8
S2050005CE0027
S2050005CF0026
S2050005D09392
S2050005D1061E
S2050005D2F132
S2050005D30220
S2050005D4938E
S2050005D5051B
S2050005D6908F
S2050005D7001E
S2050005D8130A
S2050005D98696
S2050005DA67B4
S2050005DBFC1E
S2050005DC9386
S2050005DD77A1
S2050005DEF81F
S2050005DF0016
S2050005E033E2
S2050005E10410
S2050005E2F61D
S2050005E30012
S2050005E413FE
S2050005E5040C
S2050005E6040B
S2050005E7030B
S2050005E813FA
S2050005E97498
S2050005EAF417
S2050005EB0FFB
S2050005EC63A6
S2050005EDD038
S2050005EEF512
S2050005EF0CFA
S2050005F0A362
S2050005F18F75
S2050005F2867D
S2050005F3FE04
S2050005F413EE
S2050005F558A8
S2050005F648B7
S2050005F700FE
S2050005F8936A
S2050005F98676
S2050005FAF605
S2050005FBFFFB
S2050005FCE316
S2050005FD10E8
S2050005FE08EF
S2050005FFFEF8
S2050006009361
S20500060105EE
S20500060200F2
S20500060300F1
S20500060413DD
S2050006057679
S20500060627C7
S20500060700ED
S20500060813D9
S20500060909E2
S20500060A00EA
S20500060B00E9
S20500060C13D5
S20500060D0BDC
S20500060E00E6
S20500060F02E3
S2050006106381
S2050006115A89
S2050006129052
S20500061304DD
S20500061413CD
S20500061509D6
S20500061600DE
S20500061700DD
S20500061813C9
S20500061909D2
S20500061A19C1
S20500061B00D9
S20500061CB325
S20500061D8750
S20500061E26B0
S20500061F01D4
S2050006208351
S205000621C70C
S20500062207CB
S20500062300D1
S205000624E3ED
S2050006259A35
S20500062607C7
S205000627FECF
S2050006286369
S205000629408B
S20500062A9931
S20500062B12B7
S20500062C9335
S20500062D04C3
S20500062E06C0
S20500062F00C5
S2050006306361
S20500063102C1
S20500063206BC
S20500063302BF
S205000634932D
S205000635744B
S20500063617A7
S20500063700BD
S20500063813A9
S2050006398932
S20500063A05B5
S20500063B00B9
S20500063C6355
S20500063D8037
S20500063E04B2
S20500063F189D
S2050006409321
S205000641892A
S20500064206AC
S20500064300B1
S205000644139D
S2050006450BA4
S20500064600AE
S20500064703AA
S2050006489319
S2050006490AA1
S20500064A00AA
S20500064B00A9
S20500064C9315
S20500064D04A3
S20500064E00A6
S20500064F00A5
S2050006506F35
S20500065100A3
S205000652C0E2
S20500065301A0
S205000654138D
S2050006557728
S2050006561787
S205000657009D
S2050006586339
S2050006590C8F
S20500065A0793
S20500065B1A7F
S20500065C1385
S20500065D0B8C
S20500065E0096
S20500065F0293
S2050006601381
S205000661890A
S205000662058D
S2050006630091
S20500066493FD
S2050006658906
S2050006660688
S205000667008D
S20500066893F9
S2050006690A81
S20500066A008A
S20500066B0089
S20500066C3355
S20500066D8AFD
S20500066E3A4C
S20500066F4144
S2050006701371
S2050006710A79
S2050006721A68
S2050006730081
S205000674136D
S205000675057A
S205000676047A
S205000677007D
S205000678B3C9
S2050006798AF1
S20500067A4931
S20500067B0178
S20500067C93E5
S20500067D89EE
S20500067E195D
S20500067F0075
S205000680EF85
S2050006810073
S205000682C0B2
S2050006837EF3
S205000684036D
S205000685C4AB
S2050006860965
S205000687006D
S205000688E389
S2050006891655
S20500068A0466
S20500068BFE6B
S20500068CE385
S20500068D5A0D
S20500068E90D6
S20500068FF075
S2050006901351
S20500069184DF
S205000692045E
S2050006930061
S205000694134D
S205000695045B
S205000696F46A
S205000697FF5E
S2050006981349
S2050006990556
S20500069A0B4F
S20500069B0059
S20500069CEF69
S20500069D0057
S20500069E0056
S20500069F7DD8
S2050006A0E371
S2050006A11A39
S2050006A2044E
S2050006A3FE53
S2050006A4B39D
S2050006A58AC5
S2050006A69AB4
S2050006A7004D
S2050006A86FDD
S2050006A9F05B
S2050006AA9FAB
S2050006ABEF5A
S2050006AC93B5
S2050006AD86C1
S2050006AEF650
S2050006AFFF46
S2050006B01331
S2050006B184BF
S2050006B2073B
S2050006B3033E
S2050006B4231D
S2050006B580BF
S2050006B686B8
S2050006B7003D
S2050006B81329
S2050006B958E3
S2050006BA48F2
S2050006BB0039
S2050006BCE355
S2050006BD1027
S2050006BE082E
S2050006BFF243
S2050006C093A1
S2050006C1052E
S2050006C20032
S2050006C30031
S2050006C4131D
S2050006C576B9
S2050006C62707
S2050006C7002D
S2050006C81319
S2050006C90922
S2050006CA002A
S2050006CB0029
S2050006CC1315
S2050006CD0B1C
S2050006CE0026
S2050006CF0223
S2050006D0E341
S2050006D142E1
S2050006D29092
S2050006D3F42D
S2050006D46FB1
S2050006D5F02F
S2050006D61FFF
S2050006D7F924
S2050006D89389
S2050006D90714
S2050006DA001A
S2050006DB0316
S2050006DC23F5
S2050006DD18FF
S2050006DEF125
S2050006DF0015
S2050006E063B1
S2050006E15AB9
S2050006E2D042
S2050006E30011
S2050006E4937D
S2050006E50708
S2050006E610FE
S2050006E7000D
S2050006E863A9
S2050006E9907B
S2050006EAF614
S2050006EB0AFF
S2050006EC9375
S2050006ED7790
S2050006EE27DF
S2050006EF0005
S2050006F063A1
S2050006F1867D
S2050006F207FB
S2050006F30EF3
S2050006F413ED
S2050006F505FA
S2050006F600FE
S2050006F703FA
S2050006F8EF0D
S2050006F900FB
S2050006FA40BA
S2050006FB7782
S2050006FC9365
S2050006FD04F3
S2050006FE10E6
S2050006FF00F5
S2050007006F84
S205000701F002
S2050007025F92
S205000703EA06
S205000704935C
S20500070507E7
S205000706D01D
S20500070702EA
S2050007089358
S2050007098664
S20500070AE603
S20500070BFFE9
S20500070CA344
S20500070D8F57
S20500070EF9EC
S20500070FFEE6
S2050007109350
S2050007118959
S20500071206DB
S20500071300E0
S20500071413CC
S20500071504DA
S205000716D00D
S20500071702DA
S20500071813C8
S20500071909D1
S20500071A00D9
S20500071B00D8
S20500071C13C4
S20500071D0BCB
S20500071E00D5
S20500071F02D2
S2050007209340
S2050007210AC8
S20500072200D1
S20500072300D0
S2050007246F60
S205000725F0DE
S2050007269F2E
S205000727F4D8
S2050007286368
S2050007294E7C
S20500072A05C4
S20500072B08C0
S20500072CA324
S20500072D07BF
S20500072E01C4
S20500072F02C2
S20500073013B0
S20500073109B9
S20500073200C1
S20500073300C0
S2050007346F50
S205000735F0CE
S2050007365F5E
S205000737D7E5
S20500073813A8
S2050007390BAF
S20500073A00B9
S20500073B02B6
S20500073C9324
S20500073D0AAC
S20500073E00B5
S20500073F00B4
S205000740E3D0
S205000741169C
S20500074204AD
S205000743F2BE
S2050007446F40
S205000745F0BE
S205000746DFCE
S205000747E5C7
S205000748B3F8
S2050007498A20
S20500074A2485
S20500074B4167
S20500074C9314
S20500074D891D
S20500074E069F
S20500074F00A4
S2050007501390
S2050007518919
S205000752059C
S20500075300A0
S2050007546F30
S205000755F0AE
S2050007569FFE
S205000757E1BB
S2050007589308
S2050007590793
S20500075AD0C9
S20500075B0296
S20500075CA3F4
S20500075D8F07
S20500075EF99C
S20500075FFE96
S2050007609300
S205000761860C
S205000762E6AB
S205000763FF91
S205000764137C
S205000765048A
S205000766D0BD
S205000767028A
S205000768E3A8
S2050007694644
S20500076A90F9
S20500076BEA9E
S20500076C6F18
S20500076DF096
S20500076E5F26
S20500076FFA8A
S2050007706320
S2050007710C76
S205000772047D
S205000773067A
S20500077493EC
S2050007750579
S2050007760974
S205000777007C
S20500077893E8
S20500077986F4
S20500077A0970
S20500077B0078
S20500077C93E4
S20500077D84F2
S20500077E0A6B
S20500077F0074
S2050007801360
S20500078189E9
S205000782056C
S2050007830070
S2050007846F00
S205000785F07E
S2050007861F4E
S205000787EE7E
S2050007881358
S2050007891951
S20500078A3732
S20500078B0068
S20500078C1354
S20500078D79ED
S20500078E095C
S20500078F0163
S2050007901350
S20500079177EB
S205000792174A
S2050007930060
S205000794134C
S20500079584DA
S205000796F667
S205000797FF5D
S2050007981348
S2050007990951
S20500079A0950
S20500079B0256
S20500079C63F4
S20500079D1C3A
S20500079E074E
S20500079F0450
S2050007A01340
S2050007A1044E
S2050007A2F45D
S2050007A3FF51
S2050007A4133C
S2050007A50549
S2050007A60944
S2050007A7004C
S2050007A8EF5C
S2050007A9004A
S2050007AA4009
S2050007AB6CDC
S2050007ACE364
S2050007AD1A2C
S2050007AE0441
S2050007AFFE46
S2050007B01330
S2050007B1053D
S2050007B20041
S2050007B3033D
S2050007B4EF50
S2050007B5003E
S2050007B680BD
S2050007B76BD1
S2050007B86FCC
S2050007B9F04A
S2050007BADF5A
S2050007BBDE5A
S2050007BC1324
S2050007BD0B2B
S2050007BE0035
S2050007BF0331
S2050007C06FC4
S2050007C1F042
S2050007C25FD2
S2050007C3EA46
S2050007C433FC
S2050007C50826
S2050007C6A08D
S2050007C740EC
S2050007C8A388
S2050007C90723
S2050007CA0128
S2050007CB0226
S2050007CC6FB8
S2050007CDF036
S2050007CEDF46
S2050007CFCD57
S2050007D09390
S2050007D1051D
S2050007D20918
S2050007D30020
S2050007D4938C
S2050007D58698
S2050007D60914
S2050007D7001C
S2050007D86FAC
S2050007D9F02A
S2050007DADF3A
S2050007DBE335
S2050007DC9384
S2050007DD74A2
S2050007DE17FE
S2050007DF0014
S2050007E0E330
S2050007E18A88
S2050007E2040D
S2050007E3F020
S2050007E46FA0
S2050007E5F01E
S2050007E6DF2E
S2050007E7FC10
S2050007E89378
S2050007E98486
S2050007EA0AFF
S2050007EB0008
S2050007EC9374
S2050007ED0AFC
S2050007EE0005
S2050007EF0004
S2050007F06F94
S2050007F1F012
S2050007F2DF22
S2050007F3E917
S2050007F413EC
S2050007F505F9
S2050007F600FD
S2050007F703F9
S2050007F8EF0C
S2050007F900FA
S2050007FA40B9
S2050007FB6791
S2050007FC13E4
S2050007FD04F2
S2050007FEF401
S2050007FFFFF5
S20500080013DF
S20500080105EC
S20500080209E7
S20500080300EF
S205000804EFFF
S20500080500ED
S205000806806C
S2050008076685
S205000808E307
S2050008091ACF
S20500080A04E4
S20500080BFEE9
S20500080C6F77
S20500080DF0F5
S20500080E9F45
S20500080FD90A
S20500081013CF
S2050008118958
S20500081205DB
S20500081300DF
S20500081413CB
S2050008150BD2
S20500081600DC
S20500081702D9
S2050008186F6B
S205000819F0E9
S20500081ADFF9
S20500081BE4F3
S20500081C9343
S20500081D0ACB
S20500081E00D4
S20500081F00D3
S205000820E3EF
S20500082116BB
S20500082204CC
S205000823E4EB
S2050008246F5F
S205000825F0DD
S205000826DFED
S205000827D7F4
S20500082813B7
S20500082901C8
S20500082A01C7
S20500082BF8CF
S20500082C23A3
S20500082D2A9B
S20500082E9133
S20500082F04BF
S205000830239F
S205000831229F
S205000832516F
S20500083305BA
S205000834239B
S2050008352A93
S205000836912B
S20500083703B8
S2050008382397
S2050008392E8B
S20500083A11A7
S20500083B04B3
S20500083C2393
S20500083D2C89
S20500083E8133
S20500083F04AF
S205000840238F
S2050008412889
S205000842218F
S20500084305AA
S205000844238B
S2050008452687
S205000846317B
S20500084705A6
S2050008482387
S2050008492485
S20500084A4167
S20500084B05A2
S20500084C2383
S20500084D2085
S20500084E6143
S20500084F059E
S205000850237F
S2050008512E73
S205000852712F
S205000853039C
S205000854237B
S2050008552C71
S205000856811B
S2050008570398
S2050008582377
S2050008592871
S20500085AA1F7
S20500085B0394
S20500085C2373
S20500085D266F
S20500085EB1E3
S20500085F0390
S205000860236F
S205000861226F
S205000862B1DF
S2050008630689
S205000864236B
S2050008652469
S205000866C1CB
S2050008670685
S2050008682367
S2050008692663
S20500086AD1B7
S20500086B0681
S20500086C2363
S20500086D285D
S20500086EE1A3
S20500086F067D
S205000870235F
S2050008712A57
S205000872F18F
S2050008730679
S205000874235B
S2050008752C51
S205000876017B
S2050008770774
S2050008782357
S2050008792E4B
S20500087A1167
S20500087B0770
S20500087C93E3
S20500087D0C69
S20500087E056F
S20500087F0073
S205000880036F
S205000881452C
S205000882056B
S205000883006F
S20500088493DB
S2050008850A63
S205000886412B
S2050008870665
S2050008882347
S2050008892E3B
S20500088A5117
S20500088B0166
S20500088C93D3
S20500088D0461
S20500088E0064
S20500088F0063
S20500089063FF
S2050008910E53
S205000892055B
S205000893124D
S205000894B7A7
S2050008950756
S205000896104C
S205000897005B
S20500089893C7
S20500089987D2
S20500089AC791
S20500089B0453
S20500089C1343
S20500089D0A4B
S20500089E5004
S20500089F0251
S2050008A093BF
S2050008A10948
S2050008A20050
S2050008A3034C
S2050008A4133B
S2050008A50944
S2050008A690BC
S2050008A7004B
S2050008A82327
S2050008A92623
S2050008AAF157
S2050008AB0047
S2050008AC6FD7
S2050008AD0045
S2050008AE0044
S2050008AF0241
S2050008B0EF53
S2050008B10041
S2050008B2C080
S2050008B35BE4
S2050008B493AB
S2050008B50736
S2050008B60438
S2050008B7003B
S2050008B893A7
S2050008B984B5
S2050008BA1424
S2050008BB0037
S2050008BC1323
S2050008BD84B1
S2050008BE0C28
S2050008BF0033
S2050008C0939F
S2050008C18CA5
S2050008C20729
S2050008C3002F
S2050008C4032B
S2050008C545E8
S2050008C61418
S2050008C7002B
S2050008C863C7
S2050008C90227
S2050008CA0523
S2050008CB1017
S2050008CC1313
S2050008CD84A1
S2050008CE1C08
S2050008CF0023
S2050008D0E33F
S2050008D11011
S2050008D245DB
S2050008D3FF20
S2050008D4031B
S2050008D5C558
S2050008D61C00
S2050008D7001B
S2050008D863B7
S2050008D90A0F
S2050008DA0513
S2050008DB0E09
S2050008DC63B3
S2050008DD0015
S2050008DE45CF
S2050008DF0F04
S2050008E0937F
S2050008E1070A
S2050008E2D040
S2050008E3020D
S2050008E413FB
S2050008E50706
S2050008E6000C
S2050008E7000B
S2050008E863A7
S2050008E90EFB
S2050008EAF513
S2050008EB0AFD
S2050008EC63A3
S2050008ED14F1
S2050008EE35CF
S2050008EF0DF6
S2050008F003FF
S2050008F145BC
S2050008F214EC
S2050008F300FF
S2050008F413EB
S2050008F56796
S2050008F627D5
S2050008F700FB
S2050008F813E7
S2050008F904F5
S2050008FA14E4
S2050008FB00F7
S2050008FCE313
S2050008FD0AEB
S2050008FE35BF
S2050008FFFFF4
S20500090013DE
S2050009010BE5
S20500090220CF
S20500090300EE
S20500090413DA
S20500090506E6
S20500090605E6
S205000907FDED
S2050009089356
S2050009097771
S20500090AF6F1
S20500090B0FD7
S20500090C9352
S20500090D0BD9
S20500090E00E3
S20500090F00E2
S205000910637E
S205000911647C
S205000912F9E6
S20500091302DC
S205000914934A
S2050009159745
S2050009162BB0
S20500091700DA
S20500091803D6
S2050009194593
S20500091A14C3
S20500091B00D6
S20500091CB322
S20500091D864E
S20500091E775C
S20500091F01D1
S205000920933E
S205000921963A
S20500092216B9
S20500092300CE
S205000924B31A
S2050009250BC1
S205000926D6F5
S20500092700CA
S20500092813B6
S20500092906C2
S20500092A05C2
S20500092BFDC9
S20500092C9332
S20500092D774D
S20500092EF6CD
S20500092F0FB3
S20500093013AE
S20500093104BC
S20500093214AB
S20500093300BE
S205000934E3DA
S205000935704C
S205000936F9C2
S205000937FEBC
S2050009389326
S20500093907B1
S20500093A3087
S20500093B07AF
S20500093C9322
S20500093D0CA8
S20500093E149F
S20500093F00B2
S205000940634E
S20500094106AA
S205000942F5BA
S2050009430CA2
S205000944931A
S20500094507A5
S205000946406B
S20500094706A4
S2050009486346
S20500094908A0
S20500094AF5B2
S20500094B1492
S20500094C9312
S20500094D079D
S20500094E5053
S20500094F079B
S205000950633E
S20500095100A0
S205000952F5AA
S2050009531A84
S205000954930A
S2050009550795
S205000956801B
S2050009570793
S2050009586336
S2050009590E8A
S20500095AF5A2
S20500095B1A7C
S20500095C9302
S20500095D078D
S20500095E8013
S20500095F058D
S205000960632E
S2050009610C84
S205000962F59A
S2050009631C72
S20500096493FA
S2050009650785
S205000966305B
S2050009670684
S205000968E3A6
S2050009691E6A
S20500096AF592
S20500096BF492
S20500096C0382
S20500096DCDB7
S20500096E0A79
S20500096F0082
S20500097093EE
S2050009718AF6
S2050009724A35
S205000973007E
S205000974631A
S2050009758EEE
S2050009760B70
S205000977205A
S2050009786316
S2050009790A6E
S20500097A0D6A
S20500097B2452
S20500097C93E2
S20500097D076D
S20500097E1063
S20500097F0072
S205000980630E
S20500098194DC
S205000982FB74
S205000983244A
S205000984630A
S2050009850C60
S2050009860B60
S2050009872C3E
S2050009881356
S2050009897BED
S20500098A1750
S20500098B0066
S20500098C6302
S20500098D1054
S20500098E0B58
S20500098F2C36
S205000990134E
S205000991055B
S2050009920D52
S205000993005E
S205000994EF6E
S205000995005C
S20500099680DB
S2050009974D0D
S2050009981346
S2050009998BCD
S20500099A0B4C
S20500099B0056
S20500099CB3A2
S20500099D84D0
S20500099E64EF
S20500099F0151
S2050009A06FE2
S2050009A1F060
S2050009A25FF0
S2050009A3F25C
S2050009A4034A
S2050009A5C587
S2050009A62C1F
S2050009A7004A
S2050009A81336
S2050009A984C4
S2050009AA2C1B
S2050009AB0046
S2050009AC1332
S2050009AD073D
S2050009AE1033
S2050009AF0042
S2050009B0E35E
S2050009B10040
S2050009B2350A
S2050009B3F549
S2050009B4132A
S2050009B50B31
S2050009B6003B
S2050009B7003A
S2050009B86FCA
S2050009B9F048
S2050009BADF58
S2050009BBF442
S2050009BC93A2
S2050009BD87AD
S2050009BE2C07
S2050009BF0032
S2050009C0939E
S2050009C10C24
S2050009C2042B
S2050009C3002E
S2050009C4131A
S2050009C584A8
S2050009C60724
S2050009C7002A
S2050009C86FBA
S2050009C9F038
S2050009CA9F88
S2050009CBEE38
S2050009CC83A2
S2050009CD2004
S2050009CEC162
S2050009CF051D
S2050009D0031E
S2050009D124FC
S2050009D2819E
S2050009D30519
S2050009D4031A
S2050009D529F3
S2050009D6011A
S2050009D70515
S2050009D88396
S2050009D929EF
S2050009DAC156
S2050009DB0412
S2050009DC0312
S2050009DD2AEA
S2050009DE8192
S2050009DF040E
S2050009E0838E
S2050009E12AE6
S2050009E241CE
S2050009E3040A
S2050009E4030A
S2050009E52BE1
S2050009E6010A
S2050009E70406
S2050009E88386
S2050009E92BDD
S2050009EAC146
S2050009EB0303
S2050009EC0302
S2050009ED2CD8
S2050009EE8182
S2050009EF03FF
S2050009F0837E
S2050009F12CD4
S2050009F241BE
S2050009F303FB
S2050009F403FA
S2050009F52DCF
S2050009F601FA
S2050009F703F7
S2050009F88376
S2050009F92DCB
S2050009FAC136
S2050009FB02F4
S2050009FC13E2
S2050009FD856F
S2050009FE04EF
S2050009FF00F2
S205000A00836D
S205000A0124CB
S205000A0241AD
S205000A0305E8
S205000A0413D9
S205000A0501EA
S205000A0601E9
S205000A0708E1
S205000A086781
S205000A098067
S205000A0A00E6
S205000A0B00E5
S205000A0C03E1
S205000A0DAC37
S205000A0E0AD8
S205000A0F00E1
S205000A10934D
S205000A118A55
S205000A124A94
S205000A1300DD
S205000A146379
S205000A1508D3
S205000A160CCE
S205000A1712C7
S205000A1803D5
S205000A194592
S205000A1A0CCA
S205000A1B00D5
S205000A1C6371
S205000A1D8251
S205000A1E0BC7
S205000A1F14BD
S205000A20636D
S205000A2106C9
S205000A2205C9
S205000A2320AD
S205000A2413B9
S205000A250DBE
S205000A2600CA
S205000A2700C9
S205000A2813B5
S205000A290DBA
S205000A2A1DA9
S205000A2B00C5
S205000A2C3391
S205000A2D06BD
S205000A2EAC16
S205000A2F01C0
S205000A3003BD
S205000A314679
S205000A3206B8
S205000A3300BD
S205000A34E3D9
S205000A351AA1
S205000A3606B4
S205000A37FEBB
S205000A386355
S205000A394275
S205000A3A7D39
S205000A3B09AC
S205000A3C9321
S205000A3D7B38
S205000A3E179B
S205000A3F00B1
S205000A40634D
S205000A4108A7
S205000A420BA3
S205000A43129B
S205000A446349
S205000A459219
S205000A460B9F
S205000A471693
S205000A481395
S205000A490D9A
S205000A4A00A6
S205000A4B00A5
S205000A4C9311
S205000A4D0D96
S205000A4E00A2
S205000A4F039E
S205000A50039D
S205000A51455A
S205000A520C92
S205000A53009D
S205000A546339
S205000A550E8D
S205000A560595
S205000A572079
S205000A581385
S205000A590D8A
S205000A5A1D79
S205000A5B0095
S205000A5C3361
S205000A5D0D86
S205000A5E8D05
S205000A5F4150
S205000A60335D
S205000A610B84
S205000A62ACE2
S205000A63018C
S205000A64EF9D
S205000A65008B
S205000A66800A
S205000A674049
S205000A680385
S205000A694542
S205000A6A1C6A
S205000A6B0085
S205000A6C1371
S205000A6D0C77
S205000A6E1C66
S205000A6F0081
S205000A70E39D
S205000A711867
S205000A720579
S205000A73FE7F
S205000A74E399
S205000A755427
S205000A76700A
S205000A77F386
S205000A781365
S205000A798DEA
S205000A7A0B6B
S205000A7B0075
S205000A7C1361
S205000A7D0D66
S205000A7EFD75
S205000A7FFF72
S205000A80135D
S205000A8185EA
S205000A820D61
S205000A83006D
S205000A84EF7D
S205000A85006B
S205000A8680EA
S205000A873E2B
S205000A88E385
S205000A891A4D
S205000A8A0D59
S205000A8BFE67
S205000A8CB3B1
S205000A8D86DD
S205000A8E6BF7
S205000A8F0160
S205000A90B3AD
S205000A9184DB
S205000A92D48A
S205000A93005D
S205000A946FED
S205000A95F06B
S205000A961F3B
S205000A97E376
S205000A980355
S205000A99A5B2
S205000A9A0A4C
S205000A9B0055
S205000A9C93C1
S205000A9D074C
S205000A9E1042
S205000A9F064B
S205000AA093BD
S205000AA186C9
S205000AA20B43
S205000AA3004D
S205000AA41339
S205000AA50645
S205000AA6103A
S205000AA70049
S205000AA893B5
S205000AA90542
S205000AAAA0A6
S205000AAB0045
S205000AACEF55
S205000AADF053
S205000AAEDF63
S205000AAF9AA7
S205000AB093AD
S205000AB18AB5
S205000AB24AF4
S205000AB3003D
S205000AB4B389
S205000AB584B7
S205000AB6A496
S205000AB70039
S205000AB86FC9
S205000AB9F047
S205000ABADF57
S205000ABBE055
S205000ABC3301
S205000ABD8DA6
S205000ABEAB87
S205000ABF41F0
S205000AC033FD
S205000AC13BF4
S205000AC260CE
S205000AC3012C
S205000AC49399
S205000AC51D0E
S205000AC64BDF
S205000AC70029
S205000AC81315
S205000AC977B0
S205000ACA170F
S205000ACB0025
S205000ACC9391
S205000ACD8D96
S205000ACE0D15
S205000ACF021F
S205000AD063BD
S205000AD1120D
S205000AD20717
S205000AD31607
S205000AD49389
S205000AD50B10
S205000AD60D0D
S205000AD70019
S205000AD863B5
S205000AD950C7
S205000ADAA076
S205000ADB1DF8
S205000ADC9381
S205000ADD8B88
S205000ADEFB17
S205000ADFFF12
S205000AE013FD
S205000AE1858A
S205000AE20D01
S205000AE3000D
S205000AE4EF1D
S205000AE5000B
S205000AE6808A
S205000AE738D1
S205000AE8E325
S205000AE99A6D
S205000AEA0BFB
S205000AEBFE07
S205000AEC6F95
S205000AEDF013
S205000AEE5FA3
S205000AEFF60B
S205000AF003FD
S205000AF1A55A
S205000AF20AF4
S205000AF300FD
S205000AF49369
S205000AF507F4
S205000AF610EA
S205000AF706F3
S205000AF89365
S205000AF98671
S205000AFA0BEB
S205000AFB00F5
S205000AFC13E1
S205000AFD06ED
S205000AFE00F2
S205000AFF00F1
S205000B00935C
S205000B0105E9
S205000B02A04D
S205000B0300EC
S205000B04EFFC
S205000B05F0FA
S205000B065F8A
S205000B079553
S205000B089354
S205000B098A5C
S205000B0A4A9B
S205000B0B00E4
S205000B0CB330
S205000B0D845E
S205000B0EA43D
S205000B0F00E0
S205000B106F70
S205000B11F0EE
S205000B125F7E
S205000B13DB01
S205000B1403D8
S205000B15A535
S205000B160ACF
S205000B1700D8
S205000B189344
S205000B1907CF
S205000B1A10C5
S205000B1B06CE
S205000B1C9340
S205000B1D864C
S205000B1E0BC6
S205000B1F00D0
S205000B2013BC
S205000B2106C8
S205000B2200CD
S205000B2300CC
S205000B249338
S205000B2505C5
S205000B2600C9
S205000B2701C7
S205000B28EFD8
S205000B29F0D6
S205000B2A1FA6
S205000B2B9331
S205000B2C9330
S205000B2D8A38
S205000B2E4A77
S205000B2F00C0
S205000B30B30C
S205000B31843A
S205000B32A419
S205000B3300BC
S205000B346F4C
S205000B35F0CA
S205000B361F9A
S205000B37D9DF
S205000B3803B4
S205000B39A511
S205000B3A0AAB
S205000B3B00B4
S205000B3C9320
S205000B3D07AB
S205000B3E10A1
S205000B3F04AC
S205000B406F40
S205000B41F0BE
S205000B42DFCE
S205000B43FDAF
S205000B448328
S205000B452783
S205000B46C1E8
S205000B4700A8
S205000B481394
S205000B498C1A
S205000B4A079E
S205000B4B00A4
S205000B4CE3C0
S205000B4D9C06
S205000B4E0B96
S205000B4FECB4
S205000B50138C
S205000B510D91
S205000B52009D
S205000B53009C
S205000B549308
S205000B550D8D
S205000B560099
S205000B570296
S205000B581384
S205000B590591
S205000B5A8015
S205000B5B0292
S205000B5C6F24
S205000B5DF0A2
S205000B5EDFB2
S205000B5FEFA1
S205000B60137C
S205000B610D81
S205000B62008D
S205000B63008C
S205000B6493F8
S205000B650D7D
S205000B660089
S205000B670286
S205000B68E3A4
S205000B69186E
S205000B6A0580
S205000B6BEE96
S205000B6C6F14
S205000B6DF092
S205000B6E9FE2
S205000B6FD5AB
S205000B70631C
S205000B718EF0
S205000B720B72
S205000B73106C
S205000B740378
S205000B754535
S205000B760C6D
S205000B770078
S205000B781364
S205000B790D69
S205000B7A0075
S205000B7B0074
S205000B7C93E0
S205000B7D0B67
S205000B7E0071
S205000B7F0070
S205000B8093DC
S205000B810D61
S205000B82006D
S205000B83026A
S205000B84E388
S205000B851A50
S205000B860564
S205000B87EC7C
S205000B88B3B4
S205000B8984E2
S205000B8A6401
S205000B8B0163
S205000B8C6FF4
S205000B8DF072
S205000B8E9FC2
S205000B8FD38D
S205000B90E37C
S205000B910A54
S205000B920D50
S205000B93D28A
S205000B941348
S205000B950555
S205000B960D4C
S205000B970058
S205000B981344
S205000B990B4B
S205000B9A1045
S205000B9B0054
S205000B9CEF64
S205000B9D0052
S205000B9E0051
S205000B9F2D23
S205000BA0B39C
S205000BA184CA
S205000BA264E9
S205000BA3014B
S205000BA46FDC
S205000BA5F05A
S205000BA61F2A
S205000BA7D276
S205000BA80344
S205000BA94501
S205000BAA0C39
S205000BAB0044
S205000BAC93B0
S205000BAD0D35
S205000BAE0041
S205000BAF033D
S205000BB0132C
S205000BB10D31
S205000BB2003D
S205000BB3003C
S205000BB493A8
S205000BB50B2F
S205000BB60039
S205000BB70038
S205000BB81324
S205000BB90B2B
S205000BBA0035
S205000BBB0034
S205000BBCE350
S205000BBD1E14
S205000BBE052C
S205000BBFE848
S205000BC0B37C
S205000BC184AA
S205000BC264C9
S205000BC3012B
S205000BC46FBC
S205000BC5F03A
S205000BC61F0A
S205000BC7D058
S205000BC89394
S205000BC98B9B
S205000BCAFB2A
S205000BCBFF25
S205000BCC33F0
S205000BCD3BE7
S205000BCE60C1
S205000BCF011F
S205000BD0938C
S205000BD11D01
S205000BD24BD2
S205000BD3001C
S205000BD41308
S205000BD57B9F
S205000BD61702
S205000BD70018
S205000BD89384
S205000BD98D89
S205000BDA0D08
S205000BDB0212
S205000BDC1300
S205000BDD8C86
S205000BDE0B06
S205000BDF0010
S205000BE063AC
S205000BE11CF2
S205000BE20B02
S205000BE30804
S205000BE413F8
S205000BE50CFE
S205000BE6FC0D
S205000BE7FF09
S205000BE813F4
S205000BE98581
S205000BEA0DF8
S205000BEB0004
S205000BECEF14
S205000BED0002
S205000BEE0001
S205000BEF28D8
S205000BF0E31C
S205000BF11AE4
S205000BF20CF1
S205000BF3FEFE
S205000BF46398
S205000BF508F2
S205000BF60DEC
S205000BF708F0
S205000BF813E4
S205000BF98B6B
S205000BFA1BDA
S205000BFB00F4
S205000BFC9360
S205000BFD0BE7
S205000BFE00F1
S205000BFF00F0
S205000C0013DB
S205000C0105E8
S205000C020DDF
S205000C0300EB
S205000C04EFFB
S205000C0500E9
S205000C068068
S205000C0726C1
S205000C08E303
S205000C098A5B
S205000C0A0BD9
S205000C0BD80B
S205000C0C13CF
S205000C0D8D54
S205000C0E0BD5
S205000C0F00DF
S205000C1013CB
S205000C110DD0
S205000C12FDDF
S205000C13FFDC
S205000C1413C7
S205000C158554
S205000C160DCB
S205000C1700D7
S205000C18EFE7
S205000C1900D5
S205000C1A4094
S205000C1B25AE
S205000C1CE3EF
S205000C1D1AB7
S205000C1E0DC3
S205000C1FFED1
S205000C20B31B
S205000C218647
S205000C226B61
S205000C2301CA
S205000C24B317
S205000C258445
S205000C26D4F4
S205000C2700C7
S205000C286F57
S205000C29F0D5
S205000C2ADFE5
S205000C2BC9FA
S205000C2C13AF
S205000C2D8D34
S205000C2E0BB5
S205000C2F00BF
S205000C306F4F
S205000C31F0CD
S205000C321F9D
S205000C33E9D2
S205000C3403B7
S205000C354574
S205000C360CAC
S205000C3700B7
S205000C389323
S205000C390BAA
S205000C3A0DA7
S205000C3B00B3
S205000C3C139F
S205000C3D0DA4
S205000C3E00B0
S205000C3F00AF
S205000C40E3CB
S205000C411C91
S205000C4205A7
S205000C43E0CB
S205000C441397
S205000C450B9E
S205000C4600A8
S205000C4700A7
S205000C486F37
S205000C49F0B5
S205000C4ADFC5
S205000C4BE2C1
S205000C4C138F
S205000C4D059C
S205000C4E0D93
S205000C4F009F
S205000C50EFAF
S205000C51009D
S205000C52C0DC
S205000C53217A
S205000C54B3E7
S205000C558415
S205000C566434
S205000C570196
S205000C586F27
S205000C59F0A5
S205000C5ADFB5
S205000C5BC6CD
S205000C5C137F
S205000C5D7B16
S205000C5E1779
S205000C5F008F
S205000C60E3AB
S205000C611677
S205000C620B81
S205000C63FE8D
S205000C6493F7
S205000C650B7E
S205000C660088
S205000C670087
S205000C6893F3
S205000C690D78
S205000C6A0084
S205000C6B0281
S205000C6C6F13
S205000C6DF091
S205000C6EDFA1
S205000C6FF887
S205000C70B3CB
S205000C7184F9
S205000C72A4D8
S205000C73017A
S205000C746F0B
S205000C75F089
S205000C761F59
S205000C77C5B2
S205000C78E393
S205000C791461
S205000C7A0D67
S205000C7BF87B
S205000C7C135F
S205000C7D0B66
S205000C7E0070
S205000C7F006F
S205000C806FFF
S205000C81F07D
S205000C82DF8D
S205000C83F873
S205000C84B3B7
S205000C8584E5
S205000C8674F4
S205000C870166
S205000C886FF7
S205000C89F075
S205000C8ADF85
S205000C8BC3A0
S205000C8C134F
S205000C8D0D54
S205000C8E0060
S205000C8F005F
S205000C9093CB
S205000C910D50
S205000C92005C
S205000C930259
S205000C946FEB
S205000C95F069
S205000C96DF79
S205000C97DB7C
S205000C981343
S205000C990D48
S205000C9A0054
S205000C9B0053
S205000C9C6FE3
S205000C9DF061
S205000C9E5FF1
S205000C9FDB74
S205000CA0133B
S205000CA1014C
S205000CA2014B
S205000CA3FF4C
S205000CA42327
S205000CA52425
S205000CA681C7
S205000CA70047
S205000CA82323
S205000CA92223
S205000CAA91B3
S205000CAB0043
S205000CAC231F
S205000CAD261B
S205000CAE112F
S205000CAF003F
S205000CB093AB
S205000CB10439
S205000CB20537
S205000CB3003B
S205000CB40337
S205000CB545F4
S205000CB60533
S205000CB70037
S205000CB81323
S205000CB90431
S205000CBA0034
S205000CBB0033
S205000CBC63CF
S205000CBD0C25
S205000CBE052B
S205000CBF002F
S205000CC0EF3F
S205000CC1002D
S205000CC2C06C
S205000CC31A11
S205000CC41317
S205000CC50425
S205000CC61414
S205000CC70027
S205000CC8B373
S205000CC9879E
S205000CCA84A0
S205000CCB0023
S205000CCC031F
S205000CCDC55C
S205000CCE0719
S205000CCF001F
S205000CD0E33B
S205000CD11805
S205000CD20517
S205000CD3FE1D
S205000CD41307
S205000CD50514
S205000CD6A078
S205000CD70017
S205000CD8EF27
S205000CD90015
S205000CDA40D4
S205000CDB19FA
S205000CDC838F
S205000CDD20F1
S205000CDEC14F
S205000CDF000F
S205000CE013FB
S205000CE10508
S205000CE20408
S205000CE3000B
S205000CE40307
S205000CE524E5
S205000CE68187
S205000CE70007
S205000CE88383
S205000CE924E1
S205000CEA41C3
S205000CEB0003
S205000CEC13EF
S205000CED0100
S205000CEE01FF
S205000CEF01FE
S205000CF06797
S205000CF1807D
S205000CF200FC
S205000CF300FB
S205000CF46F8B
S205000CF500F9
S205000CF600F8
S205000CF700F7
S205000CF837BF
S205000CF9777E
S205000CFA10E4
S205000CFB1AD9
S205000CFC836F
S205000CFD27CA
S205000CFE07E9
S205000CFF00EF
S205000D0013DA
S205000D0101EB
S205000D0201EA
S205000D03FFEB
S205000D04B336
S205000D059553
S205000D06A542
S205000D0700E6
S205000D0823C2
S205000D0926BE
S205000D0AF1F2
S205000D0B00E2
S205000D0C835E
S205000D0D26BA
S205000D0EC11E
S205000D0F00DE
S205000D10934A
S205000D1107D5
S205000D1210CB
S205000D1300DA
S205000D14B326
S205000D159741
S205000D16A730
S205000D1700D6
S205000D189342
S205000D19C70D
S205000D1AF7DC
S205000D1BFFD3
S205000D1CB31E
S205000D1DF7D9
S205000D1ED7F8
S205000D1F00CE
S205000D2023AA
S205000D2126A6
S205000D22F1DA
S205000D2300CA
S205000D248346
S205000D2527A1
S205000D26C106
S205000D2700C6
S205000D28B312
S205000D29E5DF
S205000D2AF5CE
S205000D2B00C2
S205000D2C239E
S205000D2D269A
S205000D2EB10E
S205000D2F00BE
S205000D30833A
S205000D312795
S205000D32C1FA
S205000D3300BA
S205000D342396
S205000D352098
S205000D36F7C0
S205000D3700B6
S205000D3813A2
S205000D3901B3
S205000D3A01B2
S205000D3B01B1
S205000D3C674A
S205000D3D8030
S205000D3E00AF
S205000D3F00AE
S205000D40B7F6
S205000D411795
S205000D42109B
S205000D431A90
S205000D448326
S205000D45A701
S205000D4607A0
S205000D4700A6
S205000D481392
S205000D4901A3
S205000D4A01A2
S205000D4BFFA3
S205000D4C237E
S205000D4D267A
S205000D4EF1AE
S205000D4F009E
S205000D50930A
S205000D510795
S205000D52108B
S205000D53009A
S205000D54B3E6
S205000D559701
S205000D56A7F0
S205000D570096
S205000D580392
S205000D59256F
S205000D5AC1D2
S205000D5B0092
S205000D5C632E
S205000D5D92FE
S205000D5E058A
S205000D5F028C
S205000D6093FA
S205000D61C7C5
S205000D62F794
S205000D63FF8B
S205000D64B3D6
S205000D65F791
S205000D66A7E0
S205000D670086
S205000D682362
S205000D69265E
S205000D6AF192
S205000D6B0082
S205000D6C037E
S205000D6D2759
S205000D6EC1BE
S205000D6F007E
S205000D70B7C6
S205000D711765
S205000D72106B
S205000D731A60
S205000D742356
S205000D75A0D8
S205000D76E790
S205000D770076
S205000D781362
S205000D790173
S205000D7A0172
S205000D7B0171
S205000D7C670A
S205000D7D80F0
S205000D7E006F
S205000D7F006E
S205000D80B3BA
S205000D816705
S205000D82F576
S205000D83006A
S205000D842346
S205000D852642
S205000D86F176
S205000D870066
S205000D880362
S205000D89273D
S205000D8AC1A2
S205000D8B0062
S205000D8CB7AA
S205000D8D1749
S205000D8E104F
S205000D8F1A44
S205000D90233A
S205000D91A0BC
S205000D92E774
S205000D93005A
S205000D941346
S205000D950157
S205000D960156
S205000D970155
S205000D9867EE
S205000D9980D4
S205000D9A0053
S205000D9B0052
S205000D9CB79A
S205000D9D1739
S205000D9E103F
S205000D9F1A34
S205000DA083CA
S205000DA1A7A5
S205000DA287C4
S205000DA3004A
S205000DA41336
S205000DA50147
S205000DA60146
S205000DA7FF47
S205000DA82322
S205000DA9261E
S205000DAAF152
S205000DAB0042
S205000DAC93AE
S205000DAD0739
S205000DAE102F
S205000DAF003E
S205000DB0B38A
S205000DB197A5
S205000DB2A794
S205000DB3003A
S205000DB40336
S205000DB52513
S205000DB6C176
S205000DB70036
S205000DB863D2
S205000DB992A2
S205000DBA052E
S205000DBB0230
S205000DBC939E
S205000DBDC769
S205000DBEF738
S205000DBFFF2F
S205000DC0B37A
S205000DC1F735
S205000DC2A784
S205000DC3002A
S205000DC42306
S205000DC52602
S205000DC6F136
S205000DC70026
S205000DC80322
S205000DC927FD
S205000DCAC162
S205000DCB0022
S205000DCCB76A
S205000DCD1709
S205000DCE100F
S205000DCF1A04
S205000DD023FA
S205000DD1A478
S205000DD2E734
S205000DD3001A
S205000DD41306
S205000DD50117
S205000DD60116
S205000DD70115
S205000DD867AE
S205000DD98094
S205000DDA0013
S205000DDB0012
S205000DDCB35E
S205000DDD67A9
S205000DDEF51A
S205000DDF000E
S205000DE023EA
S205000DE126E6
S205000DE2F11A
S205000DE3000A
S205000DE40306
S205000DE527E1
S205000DE6C146
S205000DE70006
S205000DE8B74E
S205000DE917ED
S205000DEA10F3
S205000DEB1AE8
S205000DEC23DE
S205000DEDA45C
S205000DEEE718
S205000DEF00FE
S205000DF013EA
S205000DF101FB
S205000DF201FA
S205000DF301F9
S205000DF46792
S205000DF58078
S205000DF600F7
S205000DF700F6
S205000DF86F86
S205000DF900F4
S205000DFA00F3
S205000DFB00F2
S205000DFC6F82
S205000DFD00F0
S205000DFE00EF
S205000DFF00EE
S205000E006F7D
S205000E0100EB
S205000E0200EA
S205000E0300E9
S205000E046F79
S205000E0500E7
S205000E0600E6
S205000E0700E5
S205000E086F75
S205000E0900E3
S205000E0A00E2
S205000E0B00E1
S205000E0C6F71
S205000E0D00DF
S205000E0E00DE
S205000E0F00DD
S205000E106F6D
S205000E1100DB
S205000E1200DA
S205000E1300D9
S205000E146F69
S205000E1500D7
S205000E1600D6
S205000E1700D5
S205000E186F65
S205000E1900D3
S205000E1A00D2
S205000E1B00D1
S205000E1CB719
S205000E1D7659
S205000E1E10BE
S205000E1F1AB3
S205000E2003C9
S205000E21A724
S205000E224684
S205000E2300C9
S205000E24B711
S205000E2507C0
S205000E2610B6
S205000E271AAB
S205000E2813B1
S205000E29675C
S205000E2A279B
S205000E2B00C1
S205000E2C239D
S205000E2DA21D
S205000E2EE6D8
S205000E2F00BD
S205000E3013A9
S205000E3107B4
S205000E32308A
S205000E3308B1
S205000E342395
S205000E35A611
S205000E36E7CF
S205000E3700B5
S205000E3813A1
S205000E39D7DC
S205000E3A852D
S205000E3B00B1
S205000E3C238D
S205000E3DA20D
S205000E3EE7C7
S205000E3F00AD
S205000E409319
S205000E41F5B6
S205000E42F5B5
S205000E430F9A
S205000E442385
S205000E45A007
S205000E46B7EF
S205000E4700A5
S205000E481391
S205000E49079C
S205000E4A7032
S205000E4B0A97
S205000E4C237D
S205000E4DA4FB
S205000E4EE7B7
S205000E4F009D
S205000E501389
S205000E510794
S205000E52306A
S205000E530099
S205000E542375
S205000E55A6F1
S205000E56E7AF
S205000E570095
S205000E580391
S205000E59A7EC
S205000E5A474B
S205000E5B0091
S205000E5C137D
S205000E5D7718
S205000E5E0787
S205000E5F0F7E
S205000E601379
S205000E616724
S205000E622763
S205000E630089
S205000E642365
S205000E65A2E5
S205000E66E79F
S205000E670085
S205000E68671D
S205000E698003
S205000E6A0082
S205000E6B0081
S205000E6C3749
S205000E6D0778
S205000E6E106E
S205000E6F1A63
S205000E7083F9
S205000E712754
S205000E724733
S205000E730178
S205000E7493E5
S205000E75F780
S205000E76076F
S205000E770273
S205000E78E391
S205000E798CE7
S205000E7A076B
S205000E7BFE73
S205000E7C234D
S205000E7D204F
S205000E7EA7C7
S205000E7F006D
S205000E806705
S205000E8180EB
S205000E82006A
S205000E830069
S205000E843731
S205000E850760
S205000E861056
S205000E871A4B
S205000E8883E1
S205000E89273C
S205000E8A471B
S205000E8B0160
S205000E8C93CD
S205000E8DF768
S205000E8E0757
S205000E8F0459
S205000E90E379
S205000E918CCF
S205000E920753
S205000E93FE5B
S205000E9467F1
S205000E9580D7
S205000E960056
S205000E970055
S205000E981341
S205000E990152
S205000E9A0151
S205000E9BFF52
S205000E9C232D
S205000E9D2629
S205000E9E113D
S205000E9F004D
S205000EA0B795
S205000EA177D4
S205000EA2103A
S205000EA31A2F
S205000EA463E5
S205000EA50443
S205000EA60541
S205000EA70441
S205000EA81331
S205000EA9073C
S205000EAA1032
S205000EAB0041
S205000EAC231D
S205000EADAA95
S205000EAEE757
S205000EAF003D
S205000EB03705
S205000EB177C4
S205000EB2102A
S205000EB31A1F
S205000EB483B5
S205000EB52710
S205000EB647EF
S205000EB70035
S205000EB893A1
S205000EB9052E
S205000EBA1022
S205000EBB0031
S205000EBC131D
S205000EBD052A
S205000EBE80AE
S205000EBF002D
S205000EC09399
S205000EC1E744
S205000EC247E3
S205000EC30029
S205000EC42305
S205000EC52205
S205000EC6F72F
S205000EC70025
S205000EC8EF35
S205000EC9F033
S205000ECA1F03
S205000ECBE33E
S205000ECC938D
S205000ECD051A
S205000ECE100E
S205000ECF001D
S205000ED01309
S205000ED10516
S205000ED2809A
S205000ED30019
S205000ED4EF29
S205000ED5F027
S205000ED6DF37
S205000ED7E62F
S205000ED88391
S205000ED920F3
S205000EDAC151
S205000EDB0011
S205000EDC937D
S205000EDD050A
S205000EDE10FE
S205000EDF000D
S205000EE013F9
S205000EE10506
S205000EE2808A
S205000EE30009
S205000EE413F5
S205000EE50106
S205000EE60105
S205000EE70104
S205000EE86F95
S205000EE9F013
S205000EEA5FA3
S205000EEBEB16
S205000EEC23DD
S205000EEDAA55
S205000EEE07F7
S205000EEF00FD
S205000EF06F8D
S205000EF1F00B
S205000EF21FDB
S205000EF3FCFD
S205000EF413E5
S205000EF501F6
S205000EF601F5
S205000EF7FFF6
S205000EF823D1
S205000EF926CD
S205000EFA11E1
S205000EFB00F1
S205000EFCEF01
S205000EFDF0FF
S205000EFEDF0F
S205000EFFF9F4
S205000F006F7C
S205000F0100EA
S205000F0200E9
S205000F0300E8
S20510000048A2
S2051000016584
S2051000026C7C
S2051000036C7B
S2051000046F77
S20510000520C5
S205100006578D
S2051000076F74
S2051000087270
S2051000096C75
S20510000A647C
S20510000B21BE
S20510000C21BD
S20510000D21BC
S20510000E21BB
S20510000F21BA
S20510001000DA
S20510001100D9
S20510001200D8
S20510001300D7
S205100014498D
S2051000156C69
S2051000166C68
S205100017656E
S205100018676B
S2051000196170
S20510001A6C64
S20510001B20AF
S20510001C6965
S20510001D6E5F
S20510001E7359
S20510001F7457
S2051000207258
S2051000217554
S2051000226365
S2051000237453
S205100024695D
S2051000256F56
S2051000266E56
S20510002720A3
S205100028655D
S2051000296E53
S20510002A635D
S20510002B6F50
S20510002C7549
S20510002D6E4F
S20510002E7448
S20510002F6556
S2051000307248
S2051000316554
S2051000326454
S2051000332097
S2051000346155
S2051000357441
S2051000362094
S2051000376152
S205100038644E
S205100039644D
S20510003A723E
S20510003B654A
S20510003C733B
S20510003D733A
S20510003E208C
S20510003F307B
S2051000407832
S2051000412584
S2051000423078
S205100043386F
S205100044584E
S2051000453A6B
S2051000462084
S205100047257E
S205100048584A
S2051000490A97
S20510004A00A0
S20510004B009F
S20510004C2876
S20510004D6E2F
S20510004E7527
S20510004F6C2F
S2051000506C2E
S2051000512970
S2051000520098
S2051000540096
S2051000550194
S2051000560292
S2051000570291
S205100058038F
S205100059038E
S20510005A048C
S20510005B058A
S20510005C0589
S20510005D0687
S20510005E0785
S20510005F0784
S2051000600882
S2051000610881
S205100062097F
S2051000630087
S80400008C6F
